S0130000526173703241746D6567612E73726563FA
S113000045C0000060C000005EC000005CC000008D
S11300105AC0000058C0000056C0000054C0000080
S113002052C0000050C000004EC000004CC0000090
S11300304AC0000049C0000046C0000044C000009F
S113004042C0000040C000003EC000003CC00000B0
S11300503AC0000038C0000036C0000034C00000C0
S113006032C0000030C000002EC000002CC00000D0
S11300702AC0000028C0000026C0000024C00000E0
S113008022C0000020C000001EC0000011241FBEBA
S1130090CFEFD0E4DEBFCDBF13E0A0E0B1E0E4E9F0
S11300A0F2E000E00BBF02C007900D92A030B10750
S11300B0D9F723E0A0E0B3E001C01D92A530B20758
S11300C0E1F7CAD0E5C09CCF1F920F920FB60F92F2
S11300D011248F939F93AF93BF93809100039091CA
S11300E00103A0910203B09103030197A109B1098F
S11300F08093000390930103A0930203B09303033E
S1130100892B8A2B8B2B99F481E0809304038091B3
S1130110000190910101A0910201B091030180932B
S1130120000390930103A0930203B0930303BF91D0
S1130130AF919F918F910F900FBE0F901F901895C4
S11301402C9808952C9A08958BEB84B9289A2B9AAD
S113015026982C9A81E58CBD08958EBD0DB407FEBA
S1130160FDCF0895CF93C82F2998EADF8C2FF5DFB0
S1130170299AE8DFCF910895EF92FF920F931F938E
S1130180CF93DF938C01299ADBDFF80101900020E3
S1130190E9F73197E01BF10B1E161F062CF5E80159
S11301A00E0F1F1F1EC0288130E020523109F901B3
S11301B0EE0FFF1FEE0FFF1FE20FF31FE05EFE4F77
S11301C0EE0DFF1D8081C9DF8FEFE81AF80A85E084
S11301D0E816F10441F780E0C0DF21960C171D07F3
S11301E019F0E12CF12CDFCFADDFDF91CF911F911E
S11301F00F91FF90EF90089528982FEF80E792E0F9
S1130200215080409040E1F700C00000289A0895F2
S1130210F3DF81E2A7DF80ECA5DF87E0A3DF83E1E2
S1130220A1DF80E29FDF8CE09DCF0895CF93C62F9E
S113023099DF8C2F97DFCF910895CF93DF9380DFE1
S1130240299AC8EFD1E080E088DF2197E1F7299867
S113025079DFDF91CF91089511B88FEF82B974DF00
S1130260D7DFEBDF62E48FE9E1DF62E480E8DEDF21
S1130270009907C062E480E8D9DF84E091E07CDF84
S1130280F7CF62E480E8D2DF82E191E075DFF0CF5E
S1070290F894FFCF0C
S11302940100000052617370506920736179732006
S11302A43100526173705069207361797320320094
S11302B4000000000000005F0000000700070014B5
S11302C47F147F14242A7F2A122313086462364974
S11302D45522500005030000001C22410000412265
S11302E41C0014083E081408083E08080050300096
S11302F400080808080800606000002010080402D0
S11303043E5149453E00427F4000426151494621E5
S113031441454B311814127F1027454545393C4A51
S113032449493001710905033649494936064949A1
S1130334291E0036360000005636000008142241F7
S1130344001414141414004122140802015109065F
S1130354324979413E7E1111117E7F494949363E25
S1130364414141227F4141221C7F494949417F093E
S11303740909013E4149497A7F0808087F00417F01
S113038441002040413F017F081422417F40404006
S1130394407F020C027F7F0408107F3E4141413EAE
S11303A47F090909063E4151215E7F091929464600
S11303B44949493101017F01013F4040403F1F2029
S11303C440201F3F4038403F6314081463070870FB
S11303D408076151494543007F4141000204081064
S11303E4200041417F000402010204404040404097
S11303F4000102040020545454787F48444438389B
S113040444444420384444487F3854545418087E9F
S11304140901020C5252523E7F0804047800447DC0
S113042440002040443D007F1028440000417F40A8
S1130434007C041804787C08040478384444443860
S11304447C14141408081414187C7C080404084844
S113045454545420043F4440203C4040207C1C20FD
S113046440201C3C4030403C44281028440C50504C
S1130474503C4464544C44000836410000007F005E
S113048400004136080010080810087846414678F0
S9030000FC
