S01A00006D73325F46696E6765727072696E745F534D2E7372656312
S113000045C0000060C000005EC000005CC000008D
S11300105AC0000058C0000056C0000054C0000080
S113002052C0000050C000004EC000004CC0000090
S11300304AC000007EC0000046C0000044C000006A
S113004042C0000040C000003EC000003CC00000B0
S11300503AC0000038C0000036C0000034C00000C0
S113006032C0000030C000002EC000002CC00000D0
S11300702AC0000028C0000026C0000024C00000E0
S113008022C0000020C000001EC0000011241FBEBA
S1130090CFEFD0E4DEBFCDBF11E0A0E0B1E0E4E9F2
S11300A0F7E000E00BBF02C007900D92A03AB10741
S11300B0D9F721E0A0EAB1E001C01D92A63AB20747
S11300C0E1F747D365C39CCF6093000170930101AE
S11300D080930201909303016093A0017093A101A6
S11300E08093A2019093A30108958BE080938100F3
S11300F08DE790E0909389008093880082E080935C
S11301006F001092850010928400809100019091FC
S11301100101A0910201B09103018093A001909389
S1130120A101A093A201B093A3018FB780688FBFF0
S113013008951F920F920FB60F9211248F939F93DD
S1130140AF93BF938091A0019091A101A091A201CE
S1130150B091A3010197A109B1098093A0019093E3
S1130160A101A093A201B093A301892B8A2B8B2B0D
S113017099F481E08093A4018091000190910101A0
S1130180A0910201B09103018093A0019093A10179
S1130190A093A201B093A301BF91AF919F918F91BE
S11301A00F900FBE0F901F901895813081F0E1ECF5
S11301B0F0E0808188618083E2ECF0E080818660F9
S11301C0808383E38093C4001092C5000895E9EC12
S11301D0F0E0808188618083EAECF0E080818660D1
S11301E0808387E08093CC001092CD000895813005
S11301F029F48091C800882374F008958091C00088
S113020088238CF4A6ECB0E0E0ECF0E08C918081E3
S11302108823E4F30895AEECB0E0E8ECF0E08C91D0
S113022080818823E4F30895613041F0E0ECF0E04C
S1130230908195FFFDCF8093C6000895E8ECF0E02F
S1130240908195FFFDCF8093CE000895813041F0D9
S1130250E0ECF0E080818823ECF78091C6000895FB
S1130260E8ECF0E080818823ECF78091CE000895DB
S1130270181619065CF00895000021503109E1F7C1
S11302804F5F5F4F8417950719F4089540E050E0DD
S113029027E033E0F1CF5E9888B95F9A00005F9859
S11302A082E090E0E5CF089581E0F5CF089584E6FB
S11302B090E0DEDF88E3EFDF86E0EDDF8FE0EBDF69
S11302C081E0E9DF8AE090E0D3CF08955E9A88B9AF
S11302D05F9A00005F9881E090E0CACF0895813171
S11302E018F48158D8CF08958155D5CF08951F9318
S11302F0CF93DF93FB019081992351F0EB0111E03F
S1130300180FEDDF8991E2DF812F98819111F7CFEA
S1130310DF91CF911F910895EF92FF920F931F9356
S1130320CF93DF938091C80085FF85C064E071E0BE
S113033081E0DDDF65E171E081E1D9DF81E057DF54
S113034061E08FEE71DF61E081E06EDF61E08FEFED
S11303506BDF61E08FEF68DF61E08FEF65DF61E005
S11303608FEF62DF61E081E05FDF61E080E05CDF0E
S113037061E083E059DF61E081E056DF61E080E025
S113038053DF61E085E050DF81E060DFC0E0D0E072
S1130390E12CF12C4BC081E059DF182FC930D10575
S11303A009F044C081E052DF81E050DF111143C005
S11303B081E01DDF61E08FEE37DF61E081E034DF53
S11303C061E08FEF31DF61E08FEF2EDF61E08FEFCF
S11303D02BDF61E08FEF28DF61E081E025DF61E062
S11303E080E022DF61E084E01FDF61E082E01CDF67
S11303F061E081E019DF61E080E016DF61E088E020
S113040013DF81E023DFCE2DDF2D06C081E01EDF68
S113041081E01CDF22960AC08E010F5F1F4F81E02E
S113042015DF0930110591F3E801F6CF2196CA30A2
S1130430D1050CF4B0CF88EE93E01ADFDF91CF91B1
S11304401F910F91FF90EF900895EF92FF920F93F9
S11304501F93CF93DF938091C80085FF85C064E02C
S113046071E081E044DF66E271E081E140DF81E038
S1130470BEDE61E08FEED8DE61E081E0D5DE61E0D2
S11304808FEFD2DE61E08FEFCFDE61E08FEFCCDE65
S113049061E08FEFC9DE61E081E0C6DE61E080E00B
S11304A0C3DE61E083E0C0DE61E081E0BDDE61E0E7
S11304B080E0BADE61E085E0B7DE81E0C7DEC0E05F
S11304C0D0E0E12CF12C4BC081E0C0DE182FC93004
S11304D0D10509F044C081E0B9DE81E0B7DE111135
S11304E043C081E084DE61E08FEE9EDE61E081E066
S11304F09BDE61E08FEF98DE61E08FEF95DE61E0D7
S11305008FEF92DE61E08FEF8FDE61E081E08CDEC1
S113051061E080E089DE61E084E086DE61E082E023
S113052083DE61E082E080DE61E080E07DDE61E028
S113053089E07ADE81E08ADECE2DDF2D06C081E0FF
S113054085DE81E083DE22960AC08E010F5F1F4F95
S113055081E07CDE0930110591F3E801F6CF2196A4
S1130560CA30D1050CF4B0CF88EE93E081DEDF9180
S1130570CF911F910F91FF90EF900895CF93DF9348
S113058067E371E081E1B3DE81E031DE61E08FEEAB
S11305904BDE61E081E048DE61E08FEF45DE61E043
S11305A08FEF42DE61E08FEF3FDE61E08FEF3CDEF4
S11305B061E081E039DE61E080E036DE61E083E025
S11305C033DE61E085E030DE61E080E02DDE61E075
S11305D089E02ADE81E03ADEC9E0D0E005C081E0AE
S11305E035DE81E033DE05C081E030DE2197E1F7BE
S11305F0F6CFDF91CF9108951F93CF93DF9367E4F4
S113060071E081E074DE81E0F2DD61E08FEE0CDE0A
S113061061E081E009DE61E08FEF06DE61E08FEFEB
S113062003DE61E08FEF00DE61E08FEFFDDD61E06E
S113063081E0FADD61E080E0F7DD61E088E0F4DD8F
S113064061E084E0F1DD61E081E0EEDD61E080E025
S1130650EBDD61E080E0E8DD61E080E0E5DD61E0C4
S11306608AE0E2DD61E080E0DFDD61E088E1DCDD9D
S113067081E0ECDDC9E0D0E026C081E0E7DD81E087
S1130680E5DD81E0E3DD81E0E1DD81E0DFDD81E0E6
S1130690DDDDC82F11110EC067E571E081E027DEB2
S11306A068E671E081E123DE6C2F70E08CE11FDEEF
S11306B0299A0FC06BE771E081E019DE6CE871E004
S11306C081E115DE06C081E0C1DD182F2197D9F73D
S11306D0D4CF88EE93E0CCDDDF91CF911F910895C4
S11306E08091A5018230E9F028F4882341F081301B
S11306F081F02AC08330E9F0843019F125C00199D2
S113070025C081E08093A50107DE88EE93E0B0CD9B
S1130710089582E08093A50198DE88EE93E0A8CD49
S1130720089583E08093A50129DF84EF91E0A0CDB3
S1130730089584E08093A5015FDF80E197E298CD7E
S113074008951092A50102C01092A5012998ACCD7C
S1130750089511B88EEF82B99FEF94B915B897B97F
S113076018B88AB981E08BB962E370E080E090E068
S1130770ABDCBBDC1092A5019ADD96DD81E015DDD2
S1130780AFDF8091A4018823E1F31092A401F8CF94
S1070790F894FFCF07
S1130794010000005363616E6E696E672E2E2E2E67
S11307A42E2E2E2E0052656164696E672066696E72
S11307B467657220310052656164696E67206669F9
S11307C46E6765722032004D616B696E67207465D3
S11307D46D706C61746500436865636B696E672052
S11307E466696E67657200554E4C4F434B45442011
S11307F4202020202020200046696E676572204650
S11308044F554E4421212020202000202020202048
S113081420202020202020202020200046696E67EC
S11308246572204E4F5420466F756E64202020005C
S9030000FC
