S017000046696E6765727072696E74546573742E73726563E5
S113000045C0000060C000005EC000005CC000008D
S11300105AC0000058C0000056C0000054C0000080
S113002052C0000050C000004EC000004CC0000090
S11300304AC000007EC0000046C0000044C000006A
S113004042C0000040C000003EC000003CC00000B0
S11300503AC0000038C0000036C0000034C00000C0
S113006032C0000030C000002EC000002CC00000D0
S11300702AC0000028C0000026C0000024C00000E0
S113008022C0000020C000001EC0000011241FBEBA
S1130090CFEFD0E4DEBFCDBF11E0A0E0B1E0ECEDE6
S11300A0F6E000E00BBF02C007900D92A435B10743
S11300B0D9F721E0A4E5B1E001C01D92A935B2074A
S11300C0E1F7D6D209C39CCF60930001709301017C
S11300D0809302019093030160935401709355013E
S11300E0809356019093570108958BE0809381008B
S11300F08DE790E0909389008093880082E080935C
S11301006F001092850010928400809100019091FC
S11301100101A0910201B0910301809354019093D5
S11301205501A0935601B09357018FB780688FBFD4
S113013008951F920F920FB60F9211248F939F93DD
S1130140AF93BF938091540190915501A0915601B2
S1130150B09157010197A109B1098093540190937B
S11301605501A0935601B0935701892B8A2B8B2BF1
S113017099F481E0809358018091000190910101EC
S1130180A0910201B0910301809354019093550111
S1130190A0935601B0935701BF91AF919F918F9156
S11301A00F900FBE0F901F901895813081F0E1ECF5
S11301B0F0E0808188618083E2ECF0E080818660F9
S11301C0808383E38093C4001092C5000895E9EC12
S11301D0F0E0808188618083EAECF0E080818660D1
S11301E0808383E38093CC001092CD000895613026
S11301F041F0E0ECF0E0908195FFFDCF8093C600E4
S11302000895E8ECF0E0908195FFFDCF8093CE0057
S11302100895813041F0E0ECF0E080818823ECF730
S11302208091C6000895E8ECF0E080818823ECF723
S11302308091CE000895181619065CF00895000008
S113024021503109E1F74F5F5F4F8417950719F487
S1130250089540E050E027E033E0F1CF5E9888B99C
S11302605F9A00005F9882E090E0E5CF089581E016
S1130270F5CF089584E690E0DEDF88E3EFDF86E0E3
S1130280EDDF8FE0EBDF81E0E9DF8AE090E0D3CFC0
S113029008955E9A88B95F9A00005F9881E090E0C3
S11302A0CACF0895813118F48158D8CF0895815563
S11302B0D5CF08951F93CF93DF93FB0190819923AA
S11302C051F0EB0111E0180FEDDF8991E2DF812F8E
S11302D098819111F7CFDF91CF911F910895DF920B
S11302E0EF92FF920F931F93CF93DF936FEE81E012
S11302F07EDF61E081E07BDF6FEF81E078DF6FEF2D
S113030081E075DF6FEF81E072DF6FEF81E06FDF17
S113031061E081E06CDF60E081E069DF63E081E05F
S113032066DF61E081E063DF60E081E060DF65E07B
S113033081E05DDF81E06DDFC0E0D0E0D12CE12C15
S11303404DC081E066DF182FC930D10509F046C0E1
S113035081E05FDF81E05DDF111145C0109A6FEE2F
S113036081E045DF61E081E042DF6FEF81E03FDF64
S11303706FEF81E03CDF6FEF81E039DF6FEF81E009
S113038036DF61E081E033DF60E081E030DF64E0AC
S113039081E02DDF62E081E02ADF61E081E027DF98
S11303A060E081E024DF68E081E021DF81E031DF8B
S11303B0CD2DDE2D08C081E02CDF81E02ADFF11095
S11303C018C0119A16C08E010F5F1F4F81E021DF04
S11303D0F82E0930110579F3E801F5CF2196CA30DA
S11303E0D1050CF4AECF43DF64E071E081E062DF5D
S11303F002C02296F3CFDF91CF911F910F91FF900E
S1130400EF90DF900895DF92EF92FF920F931F9386
S1130410CF93DF936FEE81E0EADE61E081E0E7DE17
S11304206FEF81E0E4DE6FEF81E0E1DE6FEF81E00A
S1130430DEDE6FEF81E0DBDE61E081E0D8DE60E0EC
S113044081E0D5DE63E081E0D2DE61E081E0CFDEF1
S113045060E081E0CCDE65E081E0C9DE81E0D9DEE8
S1130460C0E0D0E0D12CE12C4DC081E0D2DE182FC9
S1130470C930D10509F046C081E0CBDE81E0C9DE98
S1130480111145C0129A6FEE81E0B1DE61E081E0A6
S1130490AEDE6FEF81E0ABDE6FEF81E0A8DE6FEFE1
S11304A081E0A5DE6FEF81E0A2DE61E081E09FDE06
S11304B060E081E09CDE64E081E099DE62E081E05E
S11304C096DE62E081E093DE60E081E090DE69E048
S11304D081E08DDE81E09DDECD2DDE2D08C081E042
S11304E098DE81E096DEF11018C0139A16C08E01D2
S11304F00F5F1F4F81E08DDEF82E0930110579F36F
S1130500E801F5CF2196CA30D1050CF4AECFAFDEA9
S113051064E071E081E0CEDE02C02296F3CFDF9189
S1130520CF911F910F91FF90EF90DF9008951F934B
S1130530CF93DF939CDE65E171E081E0BBDE6FEE7B
S113054081E055DE61E081E052DE6FEF81E04FDE55
S11305506FEF81E04CDE6FEF81E049DE6FEF81E009
S113056046DE61E081E043DE60E081E040DE63E09E
S113057081E03DDE65E081E03ADE60E081E037DE87
S113058069E081E034DE81E044DEC9E0D0E008C007
S113059081E03FDE81E03DDE111108C0149A06C0FF
S11305A081E037DE182F2197D9F7F2CFDF91CF9171
S11305B01F9108951F93CF93DF936FEE81E017DEB1
S11305C061E081E014DE6FEF81E011DE6FEF81E026
S11305D00EDE6FEF81E00BDE6FEF81E008DE61E09D
S11305E081E005DE60E081E002DE68E081E0FFDDBD
S11305F064E081E0FCDD61E081E0F9DD60E081E060
S1130600F6DD60E081E0F3DD60E081E0F0DD6AE0EA
S113061081E0EDDD60E081E0EADD68E181E0E7DDD5
S113062081E0F7DDC9E0D0E019C081E0F2DD81E0CE
S1130630F0DD81E0EEDD81E0ECDD81E0EADD81E00A
S1130640E8DD111106C0159A65E271E081E132DE40
S11306500BC062E371E081E12DDE06C081E0D9DDEB
S1130660182F2197D9F7E1CFDF91CF911F910895EA
S11306708FEF81B912B884B915B887B918B88EEF5D
S11306808AB981E08BB968EE73E080E090E01CDD0C
S11306902CDDF0DDECDD81E088DD8FE19EE4019767
S11306A0F1F700C0000063E471E081E003DE9FEF36
S11306B029E688E1915020408040E1F700C0000025
S11306C00EDEA1DE34DF76DFD2DD8091580188238F
S10F06D0E1F310925801E1CFF894FFCF41
S11306DC0100000052656164696E672066696E678B
S11306EC65722031004D616B696E672074656D70A5
S11306FC6C6174650046696E67657220466F756E31
S113070C640046696E676572204E4F5420466F75BF
S113071C6E64005363616E6E696E672E2E2E2E2EE0
S107072C2E2E2E003B
S9030000FC
