S01300006D73325F524649445F534D2E737265637C
S113000045C0000060C000005EC000005CC000008D
S11300105AC0000058C0000056C0000054C0000080
S113002052C0000050C000004EC000004CC0000090
S11300304AC000007EC0000046C0000044C000006A
S113004042C0000040C000003EC000003CC00000B0
S11300503AC0000038C0000036C0000034C00000C0
S113006032C0000030C000002EC000002CC00000D0
S11300702AC0000028C0000026C0000024C00000E0
S113008022C0000020C000001EC0000011241FBEBA
S1130090CFEFD0E4DEBFCDBF11E0A0E0B1E0E8E5F2
S11300A0F4E000E00BBF02C007900D92AC33B1073F
S11300B0D9F721E0ACE3B1E001C01D92AD35B20740
S11300C0E1F7A0D1C7C19CCF6093160170931701CB
S11300D0809318019093190160933C0170933D0142
S11300E080933E0190933F0108958BE080938100BB
S11300F08DE790E0909389008093880082E080935C
S11301006F001092850010928400809116019091E6
S11301101701A0911801B091190180933C019093AB
S11301203D01A0933E01B0933F018FB780688FBF1C
S113013008951F920F920FB60F9211248F939F93DD
S1130140AF93BF9380913C0190913D01A0913E01FA
S1130150B0913F010197A109B10980933C019093AB
S11301603D01A0933E01B0933F01892B8A2B8B2B39
S113017099F481E0809340018091160190911701D8
S1130180A0911801B091190180933C0190933D0115
S1130190A0933E01B0933F01BF91AF919F918F9186
S11301A00F900FBE0F901F901895813081F0E1ECF5
S11301B0F0E0808188618083E2ECF0E080818660F9
S11301C0808383E38093C4001092C5000895E9EC12
S11301D0F0E0808188618083EAECF0E080818660D1
S11301E0808387E08093CC001092CD000895813005
S11301F029F48091C800882374F008958091C00088
S113020088238CF4A6ECB0E0E0ECF0E08C918081E3
S11302108823E4F30895AEECB0E0E8ECF0E08C91D0
S113022080818823E4F30895813041F0E0ECF0E02C
S113023080818823ECF78091C6000895E8ECF0E013
S113024080818823ECF78091CE0008951816190652
S11302505CF00895000021503109E1F74F5F5F4FD2
S11302608417950719F4089540E050E027E033E03F
S1130270F1CF5E9888B95F9A00005F9882E090E0C1
S1130280E5CF089581E0F5CF089584E690E0DEDFC0
S113029088E3EFDF86E0EDDF8FE0EBDF81E0E9DF8D
S11302A08AE090E0D3CF08955E9A88B95F9A0000FF
S11302B05F9881E090E0CACF0895813118F48158A5
S11302C0D8CF08958155D5CF08951F93CF93DF9349
S11302D0FB019081992351F0EB0111E0180FEDDF40
S11302E08991E2DF812F98819111F7CFDF91CF912E
S11302F01F910895CF92DF92EF92FF920F931F9375
S1130300CF93DF930F2EF1E4EF2EF1E0FF2EF02DCB
S113031001E511E0F7011192E017F107E1F70F2E63
S1130320F1E5CF2EF1E0DF2EF02D8BE591E0F60123
S113033011928E179F07E1F780E059DFC1E4D1E005
S113034080E072DF8993C017D107D1F72BE431E045
S1130350F70181917F01F60181936F012E153F050D
S1130360B9F761E571E081E1B0DFDF91CF911F91D1
S11303700F91FF90EF90DF90CF90089580915C01F2
S1130380813051F028F0823069F0833031F129C096
S113039081E080935C0129C0019927C082E08093A9
S11303A05C012AC06BE071E081E591E04AD0892BC1
S11303B039F060E071E081E591E043D0892BE1F40C
S11303C083E080935C015EDF6AE171E081E07DDFC0
S11303D0299A88E893E13ACF089581E080935C01FB
S11303E004C010925C012998089529984BDF64E2B7
S11303F071E081E06ACF08956CE271E081E065DF2D
S113040079CF089511B88EEF82B99FEF94B915B8DA
S113041097B918B88AB981E08BB962E370E080E0DB
S113042090E052DE62DE10925C012FDF2BDF80E071
S1130430BCDEA4DF809140018823E1F310924001E7
S1130440F8CFFB01DC018D91019080190110D9F3E3
S10B0450990B0895F894FFCF05
S11304583030303837333133353300303031353894
S1130468303735353700010000004E657874205365
S11304787465700057616974696E67005363616ECF
S10F0488204361726420547769636500AE
S9030000FC
