:1000000050C000006BC0000069C0000067C0000065
:1000100065C0000063C0000061C000005FC0000058
:100020005DC000005BC0000059C0000057C0000068
:1000300055C0000089C0000051C000004FC0000042
:100040004DC000004BC0000049C0000047C0000088
:1000500045C0000043C0000041C000003FC0000098
:100060003DC000003BC0000039C0000037C00000A8
:1000700035C0000033C0000031C000002FC00000B8
:100080002DC000002BC0000029C0000089048D0491
:100090009604BB04C604D104DC04E404F2040D0598
:1000A0002E0511241FBECFEFD0E4DEBFCDBF12E07E
:1000B000A0E0B1E0E4E9FCE000E00BBF02C0079083
:1000C0000D92A431B107D9F722E0A4E1B2E001C05A
:1000D0001D92A236B207E1F739D5DAC591CF609308
:1000E0001601709317018093180190931901609382
:1000F00016027093170280931802909319020895C4
:100100008BE0809381008DE790E09093890080934D
:10011000880082E080936F00109285001092840026
:100120008091160190911701A0911801B0911901C9
:100130008093160290931702A0931802B0931902AD
:100140008FB780688FBF08951F920F920FB60F92DE
:1001500011248F939F93AF93BF9380911602909138
:100160001702A0911802B09119020197A109B109D3
:100170008093160290931702A0931802B09319026D
:10018000892B8A2B8B2B99F481E080931A02809122
:10019000160190911701A0911801B0911901809357
:1001A000160290931702A0931802B0931902BF9100
:1001B000AF919F918F910F900FBE0F901F90189548
:1001C000813081F0E1ECF0E0808188618083E2ECB5
:1001D000F0E080818660808383E38093C400109286
:1001E000C5000895E9ECF0E0808188618083EAEC45
:1001F000F0E080818660808387E08093CC0010925D
:10020000CD000895813029F48091C800882374F0CE
:1002100008958091C00088238CF4A6ECB0E0E0EC57
:10022000F0E08C9180818823E4F30895AEECB0E097
:10023000E8ECF0E08C9180818823E4F3089561304C
:1002400041F0E0ECF0E0908195FFFDCF8093C60097
:100250000895E8ECF0E0908195FFFDCF8093CE000B
:100260000895813041F0E0ECF0E080818823ECF7E4
:100270008091C6000895E8ECF0E080818823ECF7D7
:100280008091CE000895181619065CF008950000BC
:1002900021503109E1F74F5F5F4F8417950719F43B
:1002A000089540E050E027E033E0F1CF5E9888B950
:1002B0005F9A00005F9882E090E0E5CF089581E0CA
:1002C000F5CF089584E690E0DEDF88E3EFDF86E097
:1002D000EDDF8FE0EBDF81E0E9DF8AE090E0D3CF74
:1002E00008955E9A88B95F9A00005F9881E090E077
:1002F000CACF0895813118F48158D8CF0895815517
:10030000D5CF08951F93CF93DF93FB01908199235D
:1003100051F0EB0111E0180FEDDF8991E2DF812F41
:1003200098819111F7CFDF91CF911F910895269871
:10033000269A80E48CBD08950DB407FEFDCF8EB5DE
:100340000895CF92DF92EF92FF920F931F93CF9376
:10035000DF930F2EFBE1EF2EF2E0FF2EF02D0BE2EC
:1003600012E0F7011192E017F107E1F70F2EFFE21B
:10037000CF2EF2E0DF2EF02D89E392E0F60111920C
:100380008E179F07E1F780E03DDFCBE1D2E080E010
:1003900068DF8993C017D107D1F725E232E0F70172
:1003A00081917F01F60181936F012E153F05B9F709
:1003B0006FE272E081E1A6DFDF91CF911F910F9193
:1003C000FF90EF90DF90CF900895CF92DF92EF9261
:1003D000FF920F931F93CF93DF930F2EF6E4EF2E30
:1003E000F2E0FF2EF02D06E512E0F7011192E01782
:1003F000F107E1F70F2EFAE3CF2EF2E0DF2EF02D1A
:1004000084E492E0F60111928E179F07E1F780E0F5
:10041000F9DEC6E4D2E080E024DF8993C017D1077B
:10042000D1F720E532E0F70181917F01F601819358
:100430006F012E153F05B9F7F999FECFEAE3F2E017
:1004400001900020E9F73197AF014A53524061E033
:1004500070E08AE392E005D4DF91CF911F910F9174
:10046000FF90EF90DF90CF900895EF92FF920F935F
:100470001F93CF93DF938091C80085FF85C06AE109
:1004800071E081E03FDF6BE271E081E13BDF81E021
:10049000B9DE61E08FEED3DE61E081E0D0DE61E0C5
:1004A0008FEFCDDE61E08FEFCADE61E08FEFC7DE58
:1004B00061E08FEFC4DE61E081E0C1DE61E080E0F9
:1004C000BEDE61E083E0BBDE61E081E0B8DE61E0DA
:1004D00080E0B5DE61E085E0B2DE81E0C2DEC0E052
:1004E000D0E0E12CF12C4BC081E0BBDE182FC930ED
:1004F000D10509F044C081E0B4DE81E0B2DE111123
:1005000043C081E07FDE61E08FEE99DE61E081E053
:1005100096DE61E08FEF93DE61E08FEF90DE61E0C9
:100520008FEF8DDE61E08FEF8ADE61E081E087DEB4
:1005300061E080E084DE61E084E081DE61E082E011
:100540007EDE61E081E07BDE61E080E078DE61E01C
:1005500088E075DE81E085DECE2DDF2D06C081E0EE
:1005600080DE81E07EDE22960AC08E010F5F1F4F83
:1005700081E077DE0930110591F3E801F6CF21968D
:10058000CA30D1050CF4B0CF88EE93E07CDEDF9169
:10059000CF911F910F91FF90EF900895EF92FF92EE
:1005A0000F931F93CF93DF938091C80085FF85C081
:1005B0006AE171E081E0A6DE6CE371E081E1A2DE38
:1005C00081E020DE61E08FEE3ADE61E081E037DE3F
:1005D00061E08FEF34DE61E08FEF31DE61E08FEFBD
:1005E0002EDE61E08FEF2BDE61E081E028DE61E04E
:1005F00080E025DE61E083E022DE61E081E01FDE55
:1006000061E080E01CDE61E085E019DE81E029DE4A
:10061000C0E0D0E0E12CF12C4BC081E022DE182FAD
:10062000C930D10509F044C081E01BDE81E019DE4C
:10063000111143C081E0E6DD61E08FEE00DE61E094
:1006400081E0FDDD61E08FEFFADD61E08FEFF7DD46
:1006500061E08FEFF4DD61E08FEFF1DD61E081E0DB
:10066000EEDD61E080E0EBDD61E084E0E8DD61E0AB
:1006700082E0E5DD61E082E0E2DD61E080E0DFDD97
:1006800061E089E0DCDD81E0ECDDCE2DDF2D06C010
:1006900081E0E7DD81E0E5DD22960AC08E010F5F93
:1006A0001F4F81E0DEDD0930110591F3E801F6CF3F
:1006B0002196CA30D1050CF4B0CF88EE93E0E3DD8B
:1006C000DF91CF911F910F91FF90EF900895CF93FD
:1006D000DF938091C80085FF39C06DE471E081E14E
:1006E00011DE81E08FDD61E08FEEA9DD61E081E068
:1006F000A6DD61E08FEFA3DD61E08FEFA0DD61E0BB
:100700008FEF9DDD61E08FEF9ADD61E081E097DDA5
:1007100061E080E094DD61E083E091DD61E085E00F
:100720008EDD61E080E08BDD61E089E088DD81E0E5
:1007300098DDC9E0D0E005C081E093DD81E091DD86
:1007400005C081E08EDD2197E1F7F6CFDF91CF91F3
:1007500008951F93CF93DF939091C80095FF48C0F1
:10076000C82F61E08FEE6BDD61E081E068DD61E064
:100770008FEF65DD61E08FEF62DD61E08FEF5FDDC0
:1007800061E08FEF5CDD61E081E059DD61E080E0F8
:1007900056DD61E086E053DD61E086E050DD61E03A
:1007A00081E04DDD61E080E04ADD61E08C2F47DDD6
:1007B00061E080E044DD61E08EE08C0F40DD81E0AF
:1007C00050DDC9E0D0E00EC081E04BDD81E049DDC5
:1007D00011110EC06DE571E081E194DD80ED97E0CF
:1007E00052DD06C081E03DDD182F2197D9F7ECCF0F
:1007F000DF91CF911F9108951F93CF93DF93809145
:10080000C80085FF76C06EE671E081E07BDD6EE7B3
:1008100071E081E177DD81E0F5DC61E08FEE0FDDF5
:1008200061E081E00CDD61E08FEF09DD61E08FEFD9
:1008300006DD61E08FEF03DD61E08FEF00DD61E059
:1008400081E0FDDC61E080E0FADC61E088E0F7DC7B
:1008500061E084E0F4DC61E081E0F1DC61E080E013
:10086000EEDC61E080E0EBDC61E080E0E8DC61E0B0
:100870008AE0E5DC61E080E0E2DC61E088E1DFDC89
:1008800081E0EFDCC9E0D0E02BC081E0EADCC82FDA
:1008900081E0E7DC81E0E5DC81E0E3DC81E0E1DCD4
:1008A00081E0DFDC8C2F90E08ED111110DC06EE75E
:1008B00071E081E027DD6FE871E081E123DD1092D6
:1008C0002E0210922D0212C06EE771E081E01ADD57
:1008D00062EA71E081E116DD88E893E1D4DC06C0CC
:1008E00081E0BFDC182F2197D9F7CFCF88EE93E0B6
:1008F000CADCDF91CF911F910895E09145028E2FC0
:1009000090E08B30910508F0ADC0FC01EA5BFF4F31
:1009100048C181E080934502E2C080911502813098
:1009200009F0DDC082E080934502B0C06BE071E069
:100930008FE292E03FD1892B79F060E071E08FE2A5
:1009400092E038D1892B41F066E572E08FE292E0C7
:1009500031D1892B09F09AC083E0809345028093BE
:100960001402ADDC66EB71E081E0CCDC299A88E80A
:1009700093E189CC089584E08093450283E08093DD
:10098000140273DD88EE93E07ECC089585E08093B9
:10099000450283E08093140201DE88EE93E073CC7D
:1009A000089586E08093450283E0809314028FDEF1
:1009B00084EF91E068CC089587E08093450283E05E
:1009C0008093140219CF089580912D0290912E02E8
:1009D000892B21F488E0809345026FC081E08093E9
:1009E00045027DC080912B0290912C0218161906A9
:1009F00084F4029962C089E08093450285E0809387
:100A0000140263EC71E081E17DDC81E090E0DDCCFB
:100A1000089581E08093450262C08AE08093450298
:100A200085E08093140263ED71E081E16BDC80ED81
:100A300097E029DC1ADD88EE93E025DCAFDD88EE57
:100A400093E021DC44DE84EF91E01DDC63EE71E095
:100A500081E158DC87E090E07CCE089581E08093CE
:100A600045023DC01092450229982A9881E090E005
:100A700090932E0280932D028AEF90E090932C02A7
:100A800080932B0281E080931402089582E080938A
:100A9000140263EC71E081E035DC53DCEAE3F2E060
:100AA00001900020E9F73197AF014A53524061E0CD
:100AB00070E086E592E0C5C0089584E0809314025A
:100AC00062EF71E081E01EDC80912B0290912C029C
:100AD000019790932C0280932B022A9A08952998CB
:100AE0002A9881E08093140281E090E090932E0296
:100AF00080932D028AEF90E090932C0280932B023A
:100B0000DEDB63E072E081E0FDCB0895809161025D
:100B1000813041F018F0823059F010C081E08093AC
:100B2000610212C0009B10C082E0809361020AC083
:100B3000009908C081E08093610206C010926102B2
:100B400028980895289A08952898089511B88EEF46
:100B500082B99FEF94B915B897B918B88AB981E0EE
:100B60008BB962E370E080E090E0B9DAC9DA109204
:100B7000450210926102A6DBA2DB80E021DB81E06E
:100B80001FDBD5DBBADEC2DFD7DB80931502809195
:100B900014028EBD80911A028823E1F310921A028A
:100BA000F1CFEE0FFF1F0024001C0BBE0790F69143
:100BB000E02D0994FB01DC018D9101908019011059
:100BC000D9F3990B0895CF93DF93EC012B8120FF8C
:100BD00033C026FF0AC02F7B2B838E819F81019615
:100BE0009F838E838A8190E029C022FF0FC0E88115
:100BF000F9818081082E000C990B009719F420626E
:100C00002B831AC03196F983E8830EC0EA85FB85F1
:100C1000099597FF09C02B81019611F080E201C070
:100C200080E1822B8B8308C02E813F812F5F3F4F55
:100C30003F832E83992702C08FEF9FEFDF91CF91E3
:100C40000895DC01CB01FC01F999FECF06C0F2BD8D
:100C5000E1BDF89A319600B40D9241505040B8F77A
:100C60000895DC01CB0102C02D9105D041505040C8
:100C7000D8F70895262FF999FECF1FBA92BD81BDEE
:100C800020BD0FB6F894FA9AF99A0FBE019608950E
:040C9000F894FFCF06
:100C94003030303837333133353300303031353854
:100CA400303735353700010000005363616E6E69DB
:100CB4006E672E2E2E2E2E2E2E2E00526561646906
:100CC4006E672066696E67657220310052656164E3
:100CD400696E672066696E6765722032004D616BCC
:100CE400696E672074656D706C6174650066696E09
:100CF4006765722069732073746F7265640043685A
:100D040065636B696E672066696E67657200202093
:100D140020202020202020202020202020200046C9
:100D2400696E67657220464F554E4421212020206C
:100D3400200046696E676572204E4F5420466F75D9
:100D44006E6420202000506C6163652046696E67E4
:100D54006572005363616E20436172642054776945
:100D6400636500506C6163652046696E6765722037
:100D740020200053746F72696E672046696E676540
:100D84007200554E4C4F434B4544202020202020D8
:100D94002020004C6F636B65643A20576169746965
:040DA4006E67000076
:00000001FF
