S01900004D53325F496E746567726174696F6E534D2E73726563B6
S11300004DC0000068C0000066C0000064C000006D
S113001062C0000060C000005EC000005CC0000060
S11300205AC0000058C0000056C0000054C0000070
S113003052C0000086C000004EC000004CC000004A
S11300404AC0000048C0000046C0000044C0000090
S113005042C0000040C000003EC000003CC00000A0
S11300603AC0000038C0000036C0000034C00000B0
S113007032C0000030C000002EC000002CC00000C0
S11300802AC0000028C0000026C00000C803CC031A
S1130090D203EE03F603FE0306040E0411241FBE6E
S11300A0CFEFD0E4DEBFCDBF11E0A0E0B1E0EAEFD6
S11300B0F8E000E00BBF02C007900D92A43EB10728
S11300C0D9F722E0A4EEB1E001C01D92A630B20738
S11300D0E1F7DBD310C494CF60931601709317013A
S11300E080931801909319016093E4017093E501E2
S11300F08093E6019093E70108958BE0809381005B
S11301008DE790E0909389008093880082E080934B
S11301106F001092850010928400809116019091D6
S11301201701A0911801B09119018093E4019093F3
S1130130E501A093E601B093E7018FB780688FBF14
S113014008951F920F920FB60F9211248F939F93CD
S1130150AF93BF938091E4019091E501A091E601F2
S1130160B091E7010197A109B1098093E40190934B
S1130170E501A093E601B093E701892B8A2B8B2B31
S113018099F481E08093E801809116019091170120
S1130190A0911801B09119018093E4019093E501B5
S11301A0A093E601B093E701BF91AF919F918F9126
S11301B00F900FBE0F901F901895813081F0E1ECE5
S11301C0F0E0808188618083E2ECF0E080818660E9
S11301D0808383E38093C4001092C5000895E9EC02
S11301E0F0E0808188618083EAECF0E080818660C1
S11301F0808387E08093CC001092CD0008958130F5
S113020029F48091C800882374F008958091C00077
S113021088238CF4A6ECB0E0E0ECF0E08C918081D3
S11302208823E4F30895AEECB0E0E8ECF0E08C91C0
S113023080818823E4F30895613041F0E0ECF0E03C
S1130240908195FFFDCF8093C6000895E8ECF0E01F
S1130250908195FFFDCF8093CE000895813041F0C9
S1130260E0ECF0E080818823ECF78091C6000895EB
S1130270E8ECF0E080818823ECF78091CE000895CB
S1130280181619065CF00895000021503109E1F7B1
S11302904F5F5F4F8417950719F4089540E050E0CD
S11302A027E033E0F1CF5E9888B95F9A00005F9849
S11302B082E090E0E5CF089581E0F5CF089584E6EB
S11302C090E0DEDF88E3EFDF86E0EDDF8FE0EBDF59
S11302D081E0E9DF8AE090E0D3CF08955E9A88B99F
S11302E05F9A00005F9881E090E0CACF0895813161
S11302F018F48158D8CF08958155D5CF08951F9308
S1130300CF93DF93FB019081992351F0EB0111E02E
S1130310180FEDDF8991E2DF812F98819111F7CFDA
S1130320DF91CF911F910895CF92DF92EF92FF92C8
S11303300F931F93CF93DF930F2EF9EEEF2EF1E07F
S1130340FF2EF02D09EF11E0F7011192E017F107EC
S1130350E1F70F2EF9EFCF2EF1E0DF2EF02D83E041
S113036092E0F60111928E179F07E1F780E047DFD4
S1130370C9EED1E080E072DF8993C017D107D1F7CD
S113038023EF31E0F70181917F01F60181936F0141
S11303902E153F05B9F769EF71E081E1B0DFDF9118
S11303A0CF911F910F91FF90EF90DF90CF90089520
S11303B0EF92FF920F931F93CF93DF938091C80026
S11303C085FF85C06AE171E081E099DF6BE271E04D
S11303D081E195DF81E013DF61E08FEE2DDF61E0E5
S11303E081E02ADF61E08FEF27DF61E08FEF24DF18
S11303F061E08FEF21DF61E08FEF1EDF61E081E0DC
S11304001BDF61E080E018DF61E083E015DF61E07D
S113041081E012DF61E080E00FDF61E085E00CDF66
S113042081E01CDFC0E0D0E0E12CF12C4BC081E086
S113043015DF182FC930D10509F044C081E00EDF63
S113044081E00CDF111143C081E0D9DE61E08FEE61
S1130450F3DE61E081E0F0DE61E08FEFEDDE61E08C
S11304608FEFEADE61E08FEFE7DE61E08FEFE4DE3D
S113047061E081E0E1DE61E080E0DEDE61E084E015
S1130480DBDE61E082E0D8DE61E081E0D5DE61E0C0
S113049080E0D2DE61E088E0CFDE81E0DFDECE2DD9
S11304A0DF2D06C081E0DADE81E0D8DE22960AC0C4
S11304B08E010F5F1F4F81E0D1DE0930110591F3EA
S11304C0E801F6CF2196CA30D1050CF4B0CF88EEFE
S11304D093E0D6DEDF91CF911F910F91FF90EF90C3
S11304E00895EF92FF920F931F93CF93DF93809120
S11304F0C80085FF85C06AE171E081E000DF6CE33C
S113050071E081E1FCDE81E07ADE61E08FEE94DE71
S113051061E081E091DE61E08FEF8EDE61E08FEFDC
S11305208BDE61E08FEF88DE61E08FEF85DE61E0D6
S113053081E082DE61E080E07FDE61E083E07CDEFA
S113054061E081E079DE61E080E076DE61E085E013
S113055073DE81E083DEC0E0D0E0E12CF12C4BC0FF
S113056081E07CDE182FC930D10509F044C081E058
S113057075DE81E073DE111143C081E040DE61E08D
S11305808FEE5ADE61E081E057DE61E08FEF54DEEA
S113059061E08FEF51DE61E08FEF4EDE61E08FEFBF
S11305A04BDE61E081E048DE61E080E045DE61E051
S11305B084E042DE61E082E03FDE61E082E03CDE36
S11305C061E080E039DE61E089E036DE81E046DE2C
S11305D0CE2DDF2D06C081E041DE81E03FDE229694
S11305E00AC08E010F5F1F4F81E038DE093011050C
S11305F091F3E801F6CF2196CA30D1050CF4B0CFBF
S113060088EE93E03DDEDF91CF911F910F91FF9033
S1130610EF900895CF93DF936DE471E081E16FDE95
S113062081E0EDDD61E08FEE07DE61E081E004DE74
S113063061E08FEF01DE61E08FEFFEDD61E08FEFBF
S1130640FBDD61E08FEFF8DD61E081E0F5DD61E085
S113065080E0F2DD61E083E0EFDD61E085E0ECDD88
S113066061E080E0E9DD61E089E0E6DD81E0F6DD7E
S1130670C9E0D0E005C081E0F1DD81E0EFDD05C037
S113068081E0ECDD2197E1F7F6CFDF91CF9108957A
S11306901F93CF93DF936DE571E081E030DE81E05D
S11306A0AEDD61E08FEEC8DD61E081E0C5DD61E0D3
S11306B08FEFC2DD61E08FEFBFDD61E08FEFBCDD66
S11306C061E08FEFB9DD61E081E0B6DD61E080E0FB
S11306D0B3DD61E088E0B0DD61E084E0ADDD61E0E0
S11306E081E0AADD61E080E0A7DD61E080E0A4DDD7
S11306F061E080E0A1DD61E08AE09EDD61E080E010
S11307009BDD61E088E198DD81E0A8DDC9E0D0E00F
S113071026C081E0A3DD81E0A1DD81E09FDD81E0F1
S11307209DDD81E09BDD81E099DDC82F11110EC0B4
S11307306DE671E081E0E3DD6EE771E081E1DFDD2C
S11307406C2F70E08CE1DBDD2A9A0FC061E971E067
S113075081E0D5DD62EA71E081E1D1DD06C081E0AE
S11307607DDD182F2197D9F7D4CF88EE93E088DD6B
S1130770DF91CF911F910895E09104028E2F90E0B4
S11307808830910508F04EC0FC01EA5BFF4FA1C020
S113079081E0809304024BC0019949C082E08093B8
S11307A004024DC06BE071E089EF91E09BD0892B8E
S11307B041F060E071E089EF91E094D0892B09F079
S11307C03EC083E08093040277DD66EB71E081E054
S11307D096DD299A88E893E153CD089584E08093C7
S11307E00402E6DD88EE93E04BCD089585E0809326
S11307F0040277DE88EE93E043CD089586E080938B
S1130800040208DF84EF91E03BCD089587E08093F4
S113081004023EDF80E197E233CD089581E08093C6
S1130820040205C01092040229982A980895299870
S11308302A9842DD63EC71E081E061CD089563EDB7
S113084071E081E05CDD70CD089580910502813016
S113085041F018F0823059F010C081E08093050215
S113086012C0009B10C082E0809305020AC0009968
S113087008C081E08093050206C010920502289802
S11308800895289A08952898089511B88EEF82B98A
S11308909FEF94B915B897B918B88AB981E08BB9A4
S11308A062E370E080E090E017DC27DC1092040241
S11308B01092050204DD00DD80E07FDC81E07DDC58
S11308C05BDFC3DF8091E8018823E1F31092E80144
S11308D0F7CFEE0FFF1F0024001C0BBE0790F6910C
S11308E0E02D0994FB01DC018D9101908019011028
S10D08F0D9F3990B0895F894FFCF93
S11308FA30303038373331333533003030313538EE
S113090A303735353700010000005363616E6E6974
S113091A6E672E2E2E2E2E2E2E2E0052656164699F
S113092A6E672066696E676572203100526561647C
S113093A696E672066696E6765722032004D616B65
S113094A696E672074656D706C61746500436865CF
S113095A636B696E672066696E67657200554E4CF3
S113096A4F434B4544202020202020202000466964
S113097A6E67657220464F554E442121202020205F
S113098A0020202020202020202020202020202079
S113099A200046696E676572204E4F5420466F7573
S11309AA6E6420202000506C6163652046696E677E
S11309BA6572004C6F636B65643A205761697469A8
S11309CA6E67005363616E204361726420547769D1
S10709DA636500004D
S9030000FC
