S00F000074657374696E672E7372656317
S113000045C0000060C000005EC000005CC000008D
S11300105AC0000058C0000056C0000054C0000080
S113002052C0000050C000004EC000004CC0000090
S11300304AC0000049C0000046C0000044C000009F
S113004042C0000040C000003EC000003CC00000B0
S11300503AC0000038C0000036C0000034C00000C0
S113006032C0000030C000002EC000002CC00000D0
S11300702AC0000028C0000026C0000024C00000E0
S113008022C0000020C000001EC0000011241FBEBA
S1130090CFEFD0E4DEBFCDBF11E0A0E0B1E0E2E0FD
S11300A0F3E000E00BBF02C007900D92A430B1074B
S11300B0D9F721E0A4E0B1E001C01D92A930B20754
S11300C0E1F7C6D01CC19CCF1F920F920FB60F92BE
S11300D011248F939F93AF93BF93809104019091C8
S11300E00501A0910601B09107010197A109B10989
S11300F08093040190930501A0930601B093070136
S1130100892B8A2B8B2B99F481E0809308018091B1
S1130110000190910101A0910201B091030180932B
S1130120040190930501A0930601B0930701BF91C8
S1130130AF919F918F910F900FBE0F901F901895C4
S1130140813081F0E1ECF0E0808188618083E2EC31
S1130150F0E080818660808383E38093C400109202
S1130160C5000895E9ECF0E0808188618083EAECC1
S1130170F0E080818660808383E38093CC001092DA
S1130180CD000895813041F0E0ECF0E080818823D7
S1130190ECF78091C6000895E8ECF0E080818823B4
S11301A0ECF78091CE000895181619065CF00895B6
S11301B0000021503109E1F74F5F5F4F8417950725
S11301C019F4089540E050E027E033E0F1CF5E9861
S11301D088B95F9A00005F9882E090E0E5CF0895C7
S11301E081E0F5CF089584E690E0DEDF88E3EFDF79
S11301F086E0EDDF8FE0EBDF81E0E9DF8AE090E08D
S1130200D3CF08955E9A88B95F9A00005F9881E021
S113021090E0CACF0895813118F48158D8CF089559
S11302208155D5CF08951F93CF93DF93FB01908120
S1130230992351F0EB0111E0180FEDDF8991E2DF12
S1130240812F98819111F7CFDF91CF911F9108955C
S1130250CF93DF93CDB7DEB769970FB6F894DEBFBF
S11302600FBECDBF11B88FEF82B984B915B887B965
S113027018B88EEF8AB981E08BB9B5DFB1DF80E0C1
S11302805FDFFE01319680E1DF011D928A95E9F777
S1130290709689E0DF011D928A95E9F76E01BDE051
S11302A0CB0ED11C5E01EBE0AE0EB11CFFEF23EDD3
S11302B080E3F15020408040E1F700C0000090DF6F
S11302C0DE0111967D018D0180E05CDFF8018193F0
S11302D08F01EC15FD05C1F7FE017196D7018D91D3
S11302E07D018193AA15BB05C9F7BAE1BA95F1F767
S11302F000C0BE016F5E7F4F80E095DFD7CFF894DA
S1050300FFCF29
S107030201000000F2
S9030000FC
